:100000000EC01DC01CC01BC01AC019C018C017C02C
:1000100016C015C014C013C012C011C010C01124E6
:100020001FBECFE5D2E0DEBFCDBF20E0A0E6B0E04E
:1000300001C01D92A236B207E1F797D0CDC0E0CF44
:1000400087B117B880E287B986B116B883E886B958
:1000500087B317BA87B3836187BB88B38C7E88BBAD
:1000600084B3806384BB089587B1807F87B987B1EB
:10007000836087B9369A3699FECF84B195B18F35B2
:1000800021E0920714F4C49A08958F3893400CF03D
:10009000C498089587B18C7F87B9389A29E030E0F9
:1000A00080E090E0369A3699FECF44B155B1840F86
:1000B000951FE9EFF0E03197F1F700C00000215003
:1000C00031092115310571F76AE070E05ED0693AB7
:1000D000F2E07F0764F08091600090916100892BCD
:1000E00031F488B38C7F88BB81E090E012C0CB01F3
:1000F000855591408435914088F4809160009091BD
:100100006100019759F488B38C7F88BBC09A82E064
:1001100090E090936100809360000895CB01855634
:100120009109803F910568F4809160009091610091
:100130000297D1F488B38C7F88BBC19A83E090E0AA
:10014000E8CF6536710584F480916000909161007C
:10015000039751F488B38C7F88BB88B3836088BBD6
:10016000109261001092600008956ADF7DDF89EFD0
:1001700090E00197F1F700C000008CDF89EF90E07C
:100180000197F1F700C00000F1CF97FB072E16F49E
:10019000009406D077FD08D00BD007FC05D03EF4C4
:1001A000909581959F4F0895709561957F4F089523
:1001B000AA1BBB1B51E107C0AA1FBB1FA617B7078D
:1001C00010F0A61BB70B881F991F5A95A9F78095A9
:0C01D0009095BC01CD010895F894FFCF7C
:00000001FF
